{
  "_format": "hh-sol-artifact-1",
  "contractName": "TwitterVerifier",
  "sourceName": "contracts/TwitterVerifier.sol",
  "abi": [
    {
      "inputs": [
        {
          "internalType": "address",
          "name": "oracle",
          "type": "address"
        }
      ],
      "stateMutability": "nonpayable",
      "type": "constructor"
    },
    {
      "inputs": [],
      "name": "EmptyArgs",
      "type": "error"
    },
    {
      "inputs": [],
      "name": "EmptySecrets",
      "type": "error"
    },
    {
      "inputs": [],
      "name": "EmptySource",
      "type": "error"
    },
    {
      "inputs": [],
      "name": "RequestIsAlreadyPending",
      "type": "error"
    },
    {
      "inputs": [],
      "name": "RequestIsNotPending",
      "type": "error"
    },
    {
      "inputs": [],
      "name": "SenderIsNotRegistry",
      "type": "error"
    },
    {
      "anonymous": false,
      "inputs": [
        {
          "indexed": true,
          "internalType": "bytes32",
          "name": "requestId",
          "type": "bytes32"
        },
        {
          "indexed": false,
          "internalType": "bytes",
          "name": "result",
          "type": "bytes"
        },
        {
          "indexed": false,
          "internalType": "bytes",
          "name": "err",
          "type": "bytes"
        }
      ],
      "name": "OCRResponse",
      "type": "event"
    },
    {
      "anonymous": false,
      "inputs": [
        {
          "indexed": true,
          "internalType": "address",
          "name": "from",
          "type": "address"
        },
        {
          "indexed": true,
          "internalType": "address",
          "name": "to",
          "type": "address"
        }
      ],
      "name": "OwnershipTransferRequested",
      "type": "event"
    },
    {
      "anonymous": false,
      "inputs": [
        {
          "indexed": true,
          "internalType": "address",
          "name": "from",
          "type": "address"
        },
        {
          "indexed": true,
          "internalType": "address",
          "name": "to",
          "type": "address"
        }
      ],
      "name": "OwnershipTransferred",
      "type": "event"
    },
    {
      "anonymous": false,
      "inputs": [
        {
          "indexed": true,
          "internalType": "bytes32",
          "name": "id",
          "type": "bytes32"
        }
      ],
      "name": "RequestFulfilled",
      "type": "event"
    },
    {
      "anonymous": false,
      "inputs": [
        {
          "indexed": true,
          "internalType": "bytes32",
          "name": "id",
          "type": "bytes32"
        }
      ],
      "name": "RequestSent",
      "type": "event"
    },
    {
      "inputs": [],
      "name": "acceptOwnership",
      "outputs": [],
      "stateMutability": "nonpayable",
      "type": "function"
    },
    {
      "inputs": [
        {
          "components": [
            {
              "internalType": "enum Functions.Location",
              "name": "codeLocation",
              "type": "uint8"
            },
            {
              "internalType": "enum Functions.Location",
              "name": "secretsLocation",
              "type": "uint8"
            },
            {
              "internalType": "enum Functions.CodeLanguage",
              "name": "language",
              "type": "uint8"
            },
            {
              "internalType": "string",
              "name": "source",
              "type": "string"
            },
            {
              "internalType": "bytes",
              "name": "secrets",
              "type": "bytes"
            },
            {
              "internalType": "string[]",
              "name": "args",
              "type": "string[]"
            }
          ],
          "internalType": "struct Functions.Request",
          "name": "req",
          "type": "tuple"
        },
        {
          "internalType": "uint64",
          "name": "subscriptionId",
          "type": "uint64"
        },
        {
          "internalType": "uint32",
          "name": "gasLimit",
          "type": "uint32"
        },
        {
          "internalType": "uint256",
          "name": "gasPrice",
          "type": "uint256"
        }
      ],
      "name": "estimateCost",
      "outputs": [
        {
          "internalType": "uint96",
          "name": "",
          "type": "uint96"
        }
      ],
      "stateMutability": "view",
      "type": "function"
    },
    {
      "inputs": [
        {
          "internalType": "string",
          "name": "source",
          "type": "string"
        },
        {
          "internalType": "bytes",
          "name": "secrets",
          "type": "bytes"
        },
        {
          "internalType": "string[]",
          "name": "args",
          "type": "string[]"
        },
        {
          "internalType": "uint64",
          "name": "subscriptionId",
          "type": "uint64"
        },
        {
          "internalType": "uint32",
          "name": "gasLimit",
          "type": "uint32"
        }
      ],
      "name": "executeRequest",
      "outputs": [
        {
          "internalType": "bytes32",
          "name": "",
          "type": "bytes32"
        }
      ],
      "stateMutability": "nonpayable",
      "type": "function"
    },
    {
      "inputs": [],
      "name": "getDONPublicKey",
      "outputs": [
        {
          "internalType": "bytes",
          "name": "",
          "type": "bytes"
        }
      ],
      "stateMutability": "view",
      "type": "function"
    },
    {
      "inputs": [
        {
          "internalType": "bytes32",
          "name": "requestId",
          "type": "bytes32"
        },
        {
          "internalType": "bytes",
          "name": "response",
          "type": "bytes"
        },
        {
          "internalType": "bytes",
          "name": "err",
          "type": "bytes"
        }
      ],
      "name": "handleOracleFulfillment",
      "outputs": [],
      "stateMutability": "nonpayable",
      "type": "function"
    },
    {
      "inputs": [],
      "name": "latestError",
      "outputs": [
        {
          "internalType": "bytes",
          "name": "",
          "type": "bytes"
        }
      ],
      "stateMutability": "view",
      "type": "function"
    },
    {
      "inputs": [],
      "name": "latestRequestId",
      "outputs": [
        {
          "internalType": "bytes32",
          "name": "",
          "type": "bytes32"
        }
      ],
      "stateMutability": "view",
      "type": "function"
    },
    {
      "inputs": [],
      "name": "latestResponse",
      "outputs": [
        {
          "internalType": "bytes",
          "name": "",
          "type": "bytes"
        }
      ],
      "stateMutability": "view",
      "type": "function"
    },
    {
      "inputs": [],
      "name": "owner",
      "outputs": [
        {
          "internalType": "address",
          "name": "",
          "type": "address"
        }
      ],
      "stateMutability": "view",
      "type": "function"
    },
    {
      "inputs": [
        {
          "internalType": "address",
          "name": "to",
          "type": "address"
        }
      ],
      "name": "transferOwnership",
      "outputs": [],
      "stateMutability": "nonpayable",
      "type": "function"
    },
    {
      "inputs": [
        {
          "internalType": "address",
          "name": "oracle",
          "type": "address"
        }
      ],
      "name": "updateOracleAddress",
      "outputs": [],
      "stateMutability": "nonpayable",
      "type": "function"
    }
  ],
  "bytecode": "0x60806040523480156200001157600080fd5b5060405162001c6338038062001c63833981016040819052620000349162000199565b600080546001600160a01b0319166001600160a01b038316178155339081906001600160a01b038216620000af5760405162461bcd60e51b815260206004820152601860248201527f43616e6e6f7420736574206f776e657220746f207a65726f000000000000000060448201526064015b60405180910390fd5b600280546001600160a01b0319166001600160a01b0384811691909117909155811615620000e257620000e281620000ec565b50505050620001cb565b6001600160a01b038116331415620001475760405162461bcd60e51b815260206004820152601760248201527f43616e6e6f74207472616e7366657220746f2073656c660000000000000000006044820152606401620000a6565b600380546001600160a01b0319166001600160a01b03838116918217909255600254604051919216907fed8889f560326eb138920d842192f0eb3dd22b4f139c87a2c57538e05bae127890600090a350565b600060208284031215620001ac57600080fd5b81516001600160a01b0381168114620001c457600080fd5b9392505050565b611a8880620001db6000396000f3fe608060405234801561001057600080fd5b50600436106100c95760003560e01c8063bef3a2f011610081578063f2fde38b1161005b578063f2fde38b14610182578063f7023bb614610195578063fffeb84e146101a857600080fd5b8063bef3a2f014610135578063d328a91e1461014a578063d4b391751461015257600080fd5b806327714589116100b257806327714589146100ff57806379ba5097146101125780638da5cb5b1461011a57600080fd5b80630ca76175146100ce5780631aa46f59146100e3575b600080fd5b6100e16100dc3660046113d9565b6101b0565b005b6100ec60045481565b6040519081526020015b60405180910390f35b6100ec61010d3660046114b4565b610256565b6100e161035f565b6002546040516001600160a01b0390911681526020016100f6565b61013d610419565b6040516100f6919061170b565b61013d6104a7565b61016561016036600461159f565b610545565b6040516bffffffffffffffffffffffff90911681526020016100f6565b6100e1610190366004611386565b6105db565b6100e16101a3366004611386565b6105ef565b61013d610615565b60008381526001602052604090205483906001600160a01b03163314610202576040517fa0c5ec6300000000000000000000000000000000000000000000000000000000815260040160405180910390fd5b60008181526001602052604080822080546001600160a01b03191690555182917f85e1543bf2f84fe80c6badbce3648c8539ad1df4d2b3d822938ca0538be727e691a2610250848484610622565b50505050565b6000610260610689565b61029a6040805160c08101909152806000815260200160008152602001600081526020016060815260200160608152602001606081525090565b6102e16000808c8c8080601f016020809104026020016040519081016040528093929190818152602001838380828437600092019190915250879594939250506106e59050565b86156103295761032988888080601f01602080910402602001604051908101604052809392919081815260200183838082843760009201919091525085939250506107799050565b61033d610336868861193a565b82906107c0565b600061034b8286863a610800565b60048190559b9a5050505050505050505050565b6003546001600160a01b031633146103be5760405162461bcd60e51b815260206004820152601660248201527f4d7573742062652070726f706f736564206f776e65720000000000000000000060448201526064015b60405180910390fd5b600280546001600160a01b0319808216339081179093556003805490911690556040516001600160a01b03909116919082907f8be0079c531659141344cd1fd0a4f28419497f9722a3daafe3b4186f6b6457e090600090a350565b6005805461042690611973565b80601f016020809104026020016040519081016040528092919081815260200182805461045290611973565b801561049f5780601f106104745761010080835404028352916020019161049f565b820191906000526020600020905b81548152906001019060200180831161048257829003601f168201915b505050505081565b60008054604080517fd328a91e00000000000000000000000000000000000000000000000000000000815290516060936001600160a01b039093169263d328a91e9260048082019391829003018186803b15801561050457600080fd5b505afa158015610518573d6000803e3d6000fd5b505050506040513d6000823e601f3d908101601f191682016040526105409190810190611446565b905090565b600080546001600160a01b031663d227d2458561056188610975565b86866040518563ffffffff1660e01b81526004016105829493929190611743565b60206040518083038186803b15801561059a57600080fd5b505afa1580156105ae573d6000803e3d6000fd5b505050506040513d601f19601f820116820180604052508101906105d291906116b1565b95945050505050565b6105e3610689565b6105ec81610c0b565b50565b6105f7610689565b600080546001600160a01b0319166001600160a01b03831617905550565b6006805461042690611973565b8151610635906005906020850190611153565b508051610649906006906020840190611153565b50827f7bab0ec163b5c132c72b8146ac4d6e067e82ed58f8b131150aa71c9258911562838360405161067c92919061171e565b60405180910390a2505050565b6002546001600160a01b031633146106e35760405162461bcd60e51b815260206004820152601660248201527f4f6e6c792063616c6c61626c65206279206f776e65720000000000000000000060448201526064016103b5565b565b805161071d576040517f22ce3edd00000000000000000000000000000000000000000000000000000000815260040160405180910390fd5b83836001811115610730576107306119fb565b90816001811115610743576107436119fb565b90525060408401828015610759576107596119fb565b90818015610769576107696119fb565b9052506060909301929092525050565b80516107b1576040517fe889636f00000000000000000000000000000000000000000000000000000000815260040160405180910390fd5b60006020830152608090910152565b80516107f8576040517ffe936cb700000000000000000000000000000000000000000000000000000000815260040160405180910390fd5b60a090910152565b6000805481906001600160a01b031663a98eb2068661081e89610975565b87876040518563ffffffff1660e01b815260040161083f9493929190611743565b602060405180830381600087803b15801561085957600080fd5b505af115801561086d573d6000803e3d6000fd5b505050506040513d601f19601f8201168201806040525081019061089191906113c0565b905060008054906101000a90046001600160a01b03166001600160a01b0316635ab1bd536040518163ffffffff1660e01b815260040160206040518083038186803b1580156108df57600080fd5b505afa1580156108f3573d6000803e3d6000fd5b505050506040513d601f19601f8201168201806040525081019061091791906113a3565b60008281526001602052604080822080546001600160a01b0319166001600160a01b039490941693909317909255905182917f1131472297a800fee664d1d89cfa8f7676ff07189ecc53f80bbb5f4969099db891a295945050505050565b6060610994604051806040016040528060608152602001600081525090565b6109a081610100610cb6565b5060408051808201909152600c81527f636f64654c6f636174696f6e000000000000000000000000000000000000000060208201526109e0908290610d21565b82516109fe9060018111156109f7576109f76119fb565b8290610d3d565b60408051808201909152600881527f6c616e67756167650000000000000000000000000000000000000000000000006020820152610a3d908290610d21565b6040830151610a549080156109f7576109f76119fb565b60408051808201909152600681527f736f7572636500000000000000000000000000000000000000000000000000006020820152610a93908290610d21565b6060830151610aa3908290610d21565b60a08301515115610b525760408051808201909152600481527f61726773000000000000000000000000000000000000000000000000000000006020820152610aed908290610d21565b610af681610d67565b60005b8360a0015151811015610b4857610b368460a001518281518110610b1f57610b1f611a11565b602002602001015183610d2190919063ffffffff16565b80610b40816119a8565b915050610af9565b50610b5281610d72565b60808301515115610c045760408051808201909152600f81527f736563726574734c6f636174696f6e00000000000000000000000000000000006020820152610b9c908290610d21565b610bb5836020015160018111156109f7576109f76119fb565b60408051808201909152600781527f73656372657473000000000000000000000000000000000000000000000000006020820152610bf4908290610d21565b6080830151610c04908290610d7d565b5192915050565b6001600160a01b038116331415610c645760405162461bcd60e51b815260206004820152601760248201527f43616e6e6f74207472616e7366657220746f2073656c6600000000000000000060448201526064016103b5565b600380546001600160a01b0319166001600160a01b03838116918217909255600254604051919216907fed8889f560326eb138920d842192f0eb3dd22b4f139c87a2c57538e05bae127890600090a350565b604080518082019091526060815260006020820152610cd66020836119c3565b15610cfe57610ce66020836119c3565b610cf1906020611923565b610cfb9083611801565b91505b506020808301829052604080518085526000815283019091019052815b92915050565b610d2e8260038351610d86565b610d388282610e95565b505050565b67ffffffffffffffff811115610d5b57610d578282610ec3565b5050565b610d5782600083610d86565b6105ec816004610efa565b6105ec816007610efa565b610d2e82600283515b60178167ffffffffffffffff1611610dab576102508360e0600585901b168317610f0b565b60ff8167ffffffffffffffff1611610de957610dd2836018611fe0600586901b1617610f0b565b506102508367ffffffffffffffff83166001610f30565b61ffff8167ffffffffffffffff1611610e2857610e11836019611fe0600586901b1617610f0b565b506102508367ffffffffffffffff83166002610f30565b63ffffffff8167ffffffffffffffff1611610e6957610e5283601a611fe0600586901b1617610f0b565b506102508367ffffffffffffffff83166004610f30565b610e7e83601b611fe0600586901b1617610f0b565b506102508367ffffffffffffffff83166008610f30565b604080518082019091526060815260006020820152610ebc83846000015151848551610f5e565b9392505050565b610ece8260c2610f0b565b50610d578282604051602001610ee691815260200190565b604051602081830303815290604052610d7d565b610d3882601f611fe0600585901b16175b604080518082019091526060815260006020820152610ebc8384600001515184611048565b604080518082019091526060815260006020820152610f568485600001515185856110a4565b949350505050565b6040805180820190915260608152600060208201528251821115610f8157600080fd5b6020850151610f908386611801565b1115610fc357610fc385610fb387602001518786610fae9190611801565b611125565b610fbe906002611904565b61113c565b600080865180518760208301019350808887011115610fe25787860182525b505050602084015b602084106110225780518252611001602083611801565b915061100e602082611801565b905061101b602085611923565b9350610fea565b51815160001960208690036101000a019081169019919091161790525083949350505050565b6040805180820190915260608152600060208201528360200151831061107d5761107d8485602001516002610fbe9190611904565b83518051602085830101848153508085141561109a576001810182525b5093949350505050565b60408051808201909152606081526000602082015260208501516110c88584611801565b11156110dc576110dc85610fb38685611801565b600060016110ec8461010061185c565b6110f69190611923565b905085518386820101858319825116178152508051848701111561111a5783860181525b509495945050505050565b600081831115611136575081610d1b565b50919050565b81516111488383610cb6565b506102508382610e95565b82805461115f90611973565b90600052602060002090601f01602090048101928261118157600085556111c7565b82601f1061119a57805160ff19168380011785556111c7565b828001600101855582156111c7579182015b828111156111c75782518255916020019190600101906111ac565b506111d39291506111d7565b5090565b5b808211156111d357600081556001016111d8565b600067ffffffffffffffff8084111561120757611207611a27565b8360051b60206112188183016117a8565b86815293508084018583810189101561123057600080fd5b60009350835b8881101561126b5781358681111561124c578586fd5b6112588b828b016112e1565b8452509183019190830190600101611236565b5050505050509392505050565b600082601f83011261128957600080fd5b610ebc838335602085016111ec565b60008083601f8401126112aa57600080fd5b50813567ffffffffffffffff8111156112c257600080fd5b6020830191508360208285010111156112da57600080fd5b9250929050565b600082601f8301126112f257600080fd5b8135611305611300826117d9565b6117a8565b81815284602083860101111561131a57600080fd5b816020850160208301376000918101602001919091529392505050565b80356001811061134657600080fd5b919050565b80356002811061134657600080fd5b803563ffffffff8116811461134657600080fd5b803567ffffffffffffffff8116811461134657600080fd5b60006020828403121561139857600080fd5b8135610ebc81611a3d565b6000602082840312156113b557600080fd5b8151610ebc81611a3d565b6000602082840312156113d257600080fd5b5051919050565b6000806000606084860312156113ee57600080fd5b83359250602084013567ffffffffffffffff8082111561140d57600080fd5b611419878388016112e1565b9350604086013591508082111561142f57600080fd5b5061143c868287016112e1565b9150509250925092565b60006020828403121561145857600080fd5b815167ffffffffffffffff81111561146f57600080fd5b8201601f8101841361148057600080fd5b805161148e611300826117d9565b8181528560208385010111156114a357600080fd5b6105d2826020830160208601611947565b60008060008060008060008060a0898b0312156114d057600080fd5b883567ffffffffffffffff808211156114e857600080fd5b6114f48c838d01611298565b909a50985060208b013591508082111561150d57600080fd5b6115198c838d01611298565b909850965060408b013591508082111561153257600080fd5b818b0191508b601f83011261154657600080fd5b81358181111561155557600080fd5b8c60208260051b850101111561156a57600080fd5b60208301965080955050505061158260608a0161136e565b915061159060808a0161135a565b90509295985092959890939650565b600080600080608085870312156115b557600080fd5b843567ffffffffffffffff808211156115cd57600080fd5b9086019060c082890312156115e157600080fd5b6115e961177f565b6115f28361134b565b81526116006020840161134b565b602082015261161160408401611337565b604082015260608301358281111561162857600080fd5b6116348a8286016112e1565b60608301525060808301358281111561164c57600080fd5b6116588a8286016112e1565b60808301525060a08301358281111561167057600080fd5b61167c8a828601611278565b60a08301525095506116939150506020860161136e565b92506116a16040860161135a565b9396929550929360600135925050565b6000602082840312156116c357600080fd5b81516bffffffffffffffffffffffff81168114610ebc57600080fd5b600081518084526116f7816020860160208601611947565b601f01601f19169290920160200192915050565b602081526000610ebc60208301846116df565b60408152600061173160408301856116df565b82810360208401526105d281856116df565b67ffffffffffffffff8516815260806020820152600061176660808301866116df565b63ffffffff949094166040830152506060015292915050565b60405160c0810167ffffffffffffffff811182821017156117a2576117a2611a27565b60405290565b604051601f8201601f1916810167ffffffffffffffff811182821017156117d1576117d1611a27565b604052919050565b600067ffffffffffffffff8211156117f3576117f3611a27565b50601f01601f191660200190565b60008219821115611814576118146119e5565b500190565b600181815b8085111561185457816000190482111561183a5761183a6119e5565b8085161561184757918102915b93841c939080029061181e565b509250929050565b6000610ebc838360008261187257506001610d1b565b8161187f57506000610d1b565b8160018114611895576002811461189f576118bb565b6001915050610d1b565b60ff8411156118b0576118b06119e5565b50506001821b610d1b565b5060208310610133831016604e8410600b84101617156118de575081810a610d1b565b6118e88383611819565b80600019048211156118fc576118fc6119e5565b029392505050565b600081600019048311821515161561191e5761191e6119e5565b500290565b600082821015611935576119356119e5565b500390565b6000610ebc3684846111ec565b60005b8381101561196257818101518382015260200161194a565b838111156102505750506000910152565b600181811c9082168061198757607f821691505b6020821081141561113657634e487b7160e01b600052602260045260246000fd5b60006000198214156119bc576119bc6119e5565b5060010190565b6000826119e057634e487b7160e01b600052601260045260246000fd5b500690565b634e487b7160e01b600052601160045260246000fd5b634e487b7160e01b600052602160045260246000fd5b634e487b7160e01b600052603260045260246000fd5b634e487b7160e01b600052604160045260246000fd5b6001600160a01b03811681146105ec57600080fdfea26469706673582212206520d46725cdfd7844c91ea04455710d6bed3f8bef2a1255ec7219de11937b0664736f6c63430008070033",
  "linkReferences": {},
  "deployedLinkReferences": {}
}